:4000000000800020110000003D0900003D09000008B5044B1A6803F53F5302331A6000F0ADFC00BFFA46004010B5054C237833B9044B13B10448AFF300800123237010BD42
:400040004881FF1F0000000050440000084B10B51BB108490848AFF300800848036803B910BD074B002BFBD0BDE81040184700BF000000004C81FF1F50440000C880FF1FDA
:4000800000000000000000002DE9F04180460D46002426E0284603F07BF815A3D3E9002303F0DCF80022164B03F0D8F806460F46204603F06DF810A3D3E9002303F0CEF894
:4000C0000022104B03F0F4F902460B463046394602F010FF01F0D0FD03F082FB48F824000134632CD6DDBDE8F08100BFAFF300801F85EB51B81E09401F85EB51B81E194006
:400100000000E03F0000594008B54FF4617000F099FD4FF4617000F09BFD08BD10B50446C8B2D1B201F034FB204601F0C9FA10BD38B5002001F068FD0A2000F07BFC01F057
:40014000E9F941F2883404FB00F5012001F05CFD0A2000F06FFC01F0DDF904FB00F0064B9D4202DC0122054B1A70054B984202DC0122024B5A7038BD9FF65F096481FF1FD2
:400180002FF8CF07024B187800221A70704700BF6481FF1F024B587800225A70704700BF6481FF1F08B54FF4FA6000F04BFD08BD08B54FF47A7000F045FD08BD08B54FF486
:4001C000FA6000F045FD08BD08B54FF47A7000F03FFD08BD10B5C4B2204600F09BFD204600F08CFC10BD00BF10B5C4B2204600F091FC204600F09AFD10BD00BF08B500F0FC
:40020000EDFC08BD10B500240EE00949094B53F8240003F035FB03F083FCC0B201F09AFC022000F007FC0134632CEEDD10BD00BF00007A445883FF1F10B563240EE0094923
:40024000094B53F8240003F01BFB03F069FCC0B201F080FC022000F0EDFB013C002CEEDC10BD00BF00007A44A081FF1F08B5114B9B7823B901220F4B9A7001F035FCFFF71E
:4002800091FF0120FFF7A6FF0B48FFF7B7FF002211460A48FFF742FFFFF7B4FF1E2000F0C9FBFFF785FF0020FFF794FF012001F015FA08BD6481FF1F58440000604400000A
:4002C00008B5FFF77BFF0120FFF78EFF0A48FFF795FF002211460948FFF720FFFFF7ACFF1E2000F0A7FBFFF76FFF0020FFF77CFF012001F0F3F908BD6844000070440000E9
:4003000038B500F057FC044610F01E0F06D00021012001F03DFA244801F0D2F904F0200404F0FF05002C3BD000F03EFC1F4B18700A281BD01E4B5B68042B0BDC1D4AD05461
:400340001D4800F04BFC194B187800F03BFC1B4800F044FC164B5B68052B03D1154A0021116011710133124A536019E0104B5B6810480022C2540422114903F055FC08B929
:40038000FFF774FF04220F490A4803F04DFC08B9FFF796FF074A002313601371044A5360002DAED138BD00BF784400005583FF1F6481FF1F5083FF1F844400006C44000092
:4003C000904400009844000038B5034C0025A57001F090FBA56038BD6481FF1F10B5074B9A680A329A60064C0649204603F0F8FB002201212046FFF791FE10BD6481FF1F23
:400400003083FF1FA044000008B5FFF7E7FF00F0A7FC08BD08B562B6244801F049FB00F0B5FB234801F06CFB00F0D8FC00F0E8FB00F062FC01F0C6FB01F0D6FB00F0F8FFFD
:4004400001F00AF801F096F900211A48FFF71CFE01211948FFF718FEFFF756FE0022174B9A7001F047FBFFF763FE00F02FFB30B900F026F8312802D0FFF784FE08B1FFF722
:40048000F5FE00F02BFB30B900F01AF8332802D0FFF780FE08B1FFF713FF00F027FB08B1FFF792FF0A2000F0C5FADCE701030000090400005883FF1FA081FF1F6481FF1FAC
:4004C00008B5002001F0B6FA052000F0B3FA01F093FA20B9012001F0ADFA232008BD01F093FA20B9012001F0A5FA392008BD01F093FA20B9012001F09DFA362008BD01F072
:4005000091FA20B9012001F095FA332008BD012001F090FA002001F099FA052000F08AFA01F06AFA20B9012001F090FA302008BD01F06AFA20B9012001F088FA382008BD07
:4005400001F06AFA20B9012001F080FA352008BD01F068FA20B9012001F078FA322008BD012001F073FA002001F07CFA052000F061FA01F041FA20B9012001F073FA2A209C
:4005800008BD01F041FA20B9012001F06BFA372008BD01F041FA20B9012001F063FA342008BD01F03FFA20B9012001F05BFA312008BD012001F056FA7A2008BDFEE700BF6C
:4005C000F0B40022174611E050F82760F3B226F0FF0608E001EB420511F812406D78A5550132013BDBB2002BF4D101371C2FEBD9F0BC70470C4B1B78DBB203F007010B4AA6
:4006000011701B09013213702022094B1A70022203F683031A700422D8331A704422A3F2E2231A70704700BFCF0100496E580040FD51004008B50A46002103F0C8FA08BD02
:4006400008B503F0B9FA08BD38B50024324B1C80502202331A70092202331A8018232F4A13704FF49C71023211800232137004222B492C48FFF7E4FF02222B4B1A700822C5
:400680004FF040231A70032103F500731970274B1B78DBB226490B70264B1A8041F25122023B1A8019250CE0234B1B7803F0010343EA440404F003044FF4F07001F0CCFA06
:4006C000013D0DB1032CEFD115B90320FFF776FF1A4B4FF480721A8007221A70002218490A704820023108701A700222033B1A7004220A331A70134A137843F007031370B1
:40070000013A137843F001031370013A137843F08003137038BD00BF804000408640004044060048004100400043004008010049A1460040224200402542004004400040A2
:4007400006400040A2430040012814D810B44000C0B2094B53F820101A18147C0A7822430A700130C0B253F820201844017C13780B43137010BC7047A4440000012816D86C
:4007800010B44000C0B20A4B53F820101A18147C0A7822EA04020A700130C0B253F820201844017C137823EA0103137010BC7047A4440000012808D8044B03EB800252690F
:4007C0001844017F13780B4313707047A4440000012809D8054B03EB800252691844017F137823EA01031370704700BFA444000038B572B63B4A137843F00403137000243E
:400800000BE0394863001A19510001440A46898C106AFFF70FFF0134E4B2062CF1D900240BE03149A3001819420088188022016DC06CFFF705FF0134E4B2002CF1D02B49D5
:400840004FF09040FFF7BCFE0A25294B1D70294A137843F0020313701032137843F002031370254C237843F040032370A2F58632513A137843F01003137008221F4920480B
:40088000FFF7DEFE08221F491F48FFF7D9FE2A461E491F48FFF7D4FE08221E491E48FFF7CFFE08221D491E48FFF7CAFE2A461D491D48FFF7C5FE1D4A137843F00803137085
:4008C0001B4D61232B70FFF7BFFE81232B700122184B1A70FFF78EFE0E2221461648FFF7AFFE38BDE8460040A4440000740000488358004003500140A04300400C06004822
:400900000251004014060048C25100401C060048F0510040280600481251004030060048225100403806004830510040224300400048004004000840B043004008B503F097
:400940000FF903680C2B00D1FEE7FEE708B5094B1A681044084BC31A802B02DC054B186005E003F0FDF80C2303604FF0FF32104608BD00BFCC80FF1FF084FF1F08B5104E0A
:40098000104D16E029686B68AC68002204E051F8040B43F8040B0432A242F8D1E868002203E0002143F8041B04328242F9D11035013E002EE6D103F0D9F8FFF72BFDFEE71D
:4009C000010000003447000008B5104A104B1A60104A136843F40073136000230AE0032B03D80D4A52F8231000E00C490C4A42F8231001332F2BF2D90A4B1A780A4B1A709C
:400A0000074A0A4B1A60FFF7F3FE08BD0004FA050CED00E014ED00E0000000003D0900000080FF1FBC760040C080FF1F08ED00E001BE704710B5044605E0084B186801F076
:400A40000BF9A4F50044B4F5004FF6D8034B586800FB04F001F000F910BD00BFD080FF1F08B5034B1B7A00FB03F001F0F5F808BDD080FF1F70B504460E46074B1D681F286E
:400A800002D90020FFF7D4FF04F01F04103455F8240045F8246070BD08ED00E038B504460D46072902D90020FFF7C2FF1F2C02D90020FFF7BDFF04F01F0000F1604000F5E6
:400AC00064406D01EDB2057038BD00BF024B1878C0F34010704700BFC1510040024B1878C0F30010704700BFC1510040024B1878C0F3C000704700BFC1510040044A13781B
:400B000003F0FD03400000F0020018431070704700510040044A137803F0DF03400100F02000184310707047005100407222084B1A702022A3F580731A700622623B1A7034
:400B4000472210331A7000224F331A70704700BF8765004010B501F087F804460A4A137843F020031370A2F58072137843F010031370033A137843F01003137000F026FEB6
:400B8000204601F075F810BD9765004008B5054B1B7823B9FFF7CAFF0122024B1A70FFF7D9FF08BD7881FF1F014B1878704700BF47640040024B187800F07F00704700BF8A
:400BC00067640040034B1B7813F0040FFAD1024B18707047646400404464004038B5074B1B782BB938BDFFF7EDFF0134A4B201E005460024285D0028F5D138BD7881FF1FC5
:400C0000054A137843F0020313701032137843F002031370704700BFA2430040024A137843F080031370704779650040014B1880704700BF106A0040014B1880704700BFA9
:400C4000906A0040014B1880704700BF506A0040014B1880704700BF706A0040014B1870704700BF89650040014B1878704700BF69650040014B188880B27047B06A00406B
:400C800008B501E0FFF7F6FFFFF7EEFF10F0100FF8D108BD10B5164A137803F0C00343F0090313701F32137843F001031370114C237843F0010323704BF68030FFF7B6FFFF
:400CC0004BF68030FFF7B8FF0020FFF7BBFF0020FFF7BEFF0020FFF7C1FF00F0C5FF237843F01003237000F0C3FFFFF7C9FF10BD796500409965004008B5054B1B7823B9A0
:400D0000FFF7C8FF0122024B1A70FFF787FF08BD7A81FF1F044A137803F0FE0300F0010018431070704700BF00510040044A137803F0BF03800100F0400018431070704731
:400D400000510040024A137843F080031370704774650040014B1870704700BF84650040014B1878704700BF64650040014B1860704700BF24650040014B1868704700BFEF
:400D800044650040014B1860704700BF0465004008B501E0FFF7F0FFFFF7E2FF10F0080FF8D108BD10B50B4C2046FFF7DFFF2046FFF7E8FF00F058FF074A137843F0100366
:400DC000137000F055FFFFF7E3FF0120FFF7C2FF10BD00BFFF356E019465004008B5054B1B7823B9FFF7DEFF0122024B1A70FFF7A9FF08BD7B81FF1F38B59DF81040651EF9
:400E0000EDB2032D51D8013809282ED8DFE800F0052D2D052D2D0F192D230F2B03D92548007840B222E02448007840B21EE00F2B03D92248007840B218E02148007840B2E5
:400E400014E00F2B03D91F48007840B20EE01E48007840B20AE00F2B03D91C48007840B204E01B48007840B200E0002001EB401101FB02F2D20B91B20D2B0BD8C3F10E012F
:400E800092B20A4191B2621E124800EB82020133937005E0631E0F4A02EB83030F229A70013C0C4B23F8241038BD0020FFF7C0FD38BD00BF180100491C01004919010049E9
:400EC0001D0100491A0100491E0100491B0100491F0100497C81FF1FF8B5074600F0C4FE06460D4D2B7843F003032B700B4C237843F0030323700A4B1F700320FFF7B0FDA5
:400F00002B7803F0FC032B70237803F0FC032370304600F0ADFEF8BDF8460040F946004092580040F8B504460022C14B1A7401285DD13822BF4B1A70042202331A7006226F
:400F400001331A70002501331D7001331D703F2201331A7002331D7001331D7001331D7001260A331E70502203F527631A700A2201331A702C2201331A7001331D7044221C
:400F800003331A70482201331A7001331E7002331E70112201331A70192201331A70972201331A705220FFF797FF5822A24B1A7001331D70052705331F70022201331A70DE
:400FC00001331D7001331D70284600F039FE43F233329A4B1A603146384600F01DFC3146252000F09DFC96491D20FFF743FD022C5DD138228F4B1A70042202331A70062225
:4010000001331A70002501331D7001331D703F2201331A7002331D7001331D7001331D7001260A331E70502203F527631A70272201331A702C2201331A7001331D7055222D
:4010400003331A705A2201331A70052701331F7002331E70112201331A70192201331A70972201331A704420FFF736FF5822724B1A7001331D7005331F70022201331A70A9
:4010800001331D7001331D70284600F0D9FD4FF47A426A4B1A603146384600F0BDFB3146252000F03DFC67491D20FFF7E3FC032C5DD138225F4B1A70042202331A70062210
:4010C00001331A70002501331D7001331D703F2201331A7002331D7001331D7001331D7001260A331E70502203F527631A70272201331A702C2201331A7001331D7055226D
:4011000003331A705A2201331A70052701331F7002331E70112201331A70192201331A70972201331A704420FFF7D6FE5822424B1A7001331D7005331F70022201331A7079
:4011400001331D7001331D70284600F079FD4FF47A423A4B1A603146384600F05DFB3146252000F0DDFB38491D20FFF783FC042C5DD138222F4B1A70042202331A7006225E
:4011800001331A70002401331C7001331C703F2201331A7002331C7001331C7001331C7001250A331D70502203F527631A70272201331A702C2201331A7001331C705522B5
:4011C00003331A705A2201331A70052601331E7002331D70112201331A70192201331A70972201331A704420FFF776FE5822124B1A7001331C7005331E70022201331A704E
:4012000001331C7001331C70204600F019FD4FF47A420A4B1A602946304600F0FDFA2946252000F07DFB09491D20FFF723FCF8BD7C81FF1F004E004094580040E884FF1F54
:401240003D1500004115000045150000491500002DE9F04182B0394D4FF0010885F80080374E00247474102000F0C4FA102000F045FB07211D20FFF711FC0427314B1F705D
:4012800001331C7007331C702F4A137843F0180313702E4B1C7003F2F5231C7001331C700A22A3F209331A7001331C7002331C705B2205331A705E2201331A7004331C702D
:4012C0001422A3F68C231A70CDF8008010234FF4004248F6F0510220FFF78EFD0223009310234FF4004249F2DA012046FFF784FD0323009310234FF4004249F2DA01204677
:40130000FFF77AFD009710234FF4004249F2DA012046FFF771FD2B78013B06EB83039A780B4B1A702B78013B36F82320094B1A802878FFF7F7FD02B0BDE8F081E080FF1FBB
:401340007C81FF1F96580040075B0040935800400E4E00400C4E004070B500F085FC06462A4B1B782A4B1A7842F001021A701A7842F010021A7010331A7842F001021A707D
:401380001A7842F010021A70224D2B7843F002032B70214C237843F0020323701F4A137843F0030313700320FFF75AFB2B7803F0FD032B70237803F0FD032370184A1378B8
:4013C00043F0060313707A22164B1A70164A137843F0010313701032137843F0010313700F3A137843F0010313701032137843F0010313704FF000530C4A1360A2F5C07242
:401400001360304600F034FC70BD00BFE080FF1FAA430040F8460040F9460040915800407758004082580040A143004080E200E008B5084B9B7C4BB9064BDB7C13F0FF0F73
:4014400001D1FFF705FF0122024B9A74FFF784FF08BD00BF7C81FF1F024A137843F0010313707047004E0040024A137803F0FE0313707047004E0040094B1B7C13F0FF0FA5
:4014800003D0074B5B7CDBB203E0064B1B7803F00103012B01D00028EED01846704700BF7C81FF1F014E0040154B1B7803F00303012B07D8134B1888023B1B889BB243EA35
:4014C000004013E0022B0AD10E4B1888023B1B7843EA00430C4A107843EA002006E00B4B188883B2074A108843EA0040084B1B7C13F0FF0F02D00022054B5A74704700BF63
:40150000144E0040124E0040114E0040104E00407C81FF1F10B5084A137843F004031370FFF79AFF0020FFF7A7FFFFF7BDFF0446FFF79AFF204610BD014E0040704700BFA4
:40154000704700BF704700BF704700BF10B50B4C237803F09F032370237803F0F00323702378184340F0100020700120FFF778FA237803F0EF03237010BD00BF2051004077
:4015800038B505460E4C237843F020032370237803F0BF0323700020FFF762FA237803F0F003237023781D4345F0100525700120FFF756FA237803F0EF03237038BD00BFA4
:4015C0002051004070B5354B1A7802F08002D2B21A7033490A7802F0F00242F00F020A7001310A7802F0F0020A7001310A7802F0F0020A701A7802F0DF021A701A7842F00B
:4016000040021A704FF4CA760020FFF729FA234D2B7843F010032B700120FFF721FA214B1C78E4B22B7803F0EF032B700020FFF717FA04F00804E4B22B7843F010032B7002
:401640000120FFF70DFA2B7803F0EF032B7014B90A20FFF705FA013E0CB1002ED4D10F4A137803F0BF031370137803F08003DBB213700232137803F0F0031370013213785B
:4016800003F0F00343F00F0313700132137803F0F00343F00F03137070BD00BF20510040225100402151004010B50446FFF78AFF2009FFF765FF04F00F00FFF761FF10BDD7
:4016C00038B505460078012404E0FFF7EDFF285D0134E4B20028F8D138BD00BF10B50446FFF770FF2009FFF731FF04F00F00FFF72DFF10BD08B52820FFF79CF90320FFF7FC
:4017000025FF0520FFF796F90320FFF71FFF0F20FFF790F90320FFF719FF0120FFF78AF90220FFF713FF0520FFF784F90620FFF7D5FF0E20FFF7D2FF2C20FFF7CFFF08204C
:40174000FFF7CCFF0120FFF7C9FF0C20FFF7C6FF0320FFF7C3FF0520FFF76CF908BD00BF08B50C20FFF7BAFF0122014B1A7008BD9481FF1F08B5054B5B7823B9FFF7BAFF0F
:401780000122024B5A70FFF7EBFF08BD9481FF1F08B5032819D8DFE800F002070D1381F08000FFF79BFF08BDA1F14000C0B2FFF795FF08BDA1F16C00C0B2FFF78FFF08BDCC
:4017C000A1F12C00C0B2FFF789FF08BD054A137843F0040313701032137843F004031370704700BFA2430040014B188880B2704780400040034B1A7800F0F8001043187042
:40180000704700BF82400040024B187800F00700704700BF8240004070B505460E46FFF7F3FF0446FFF7E0FFA84256D02B4B1B7803F0010294B900B185B938B9284B1D80CD
:40184000284A137803F0BF03137070BD254A137843F040031370224B1D8070BD22B3002321490B7001240F310C7004310B700C390B7803F07F030B701A4B1B7813F0080FA4
:4018800000D08DB9194B18800721013B1970164B1B7813F0010FFAD110490B7803F0FE030B700021104B19700C4B1B7813F0010F0DD00E4B1D800EB1032200E001220A4BFB
:4018C0001A70094B1B7813F0010FFAD170BD044B1D8002490B7813430B7070BDA243004080400040824000400140004002400040014B188880B2704700410040034B1A7854
:4019000000F0F80010431870704700BF02410040024B187800F00700704700BF0241004070B505460E46FFF7F3FF0446FFF7E0FFA84256D02B4B1B7803F0010294B900B146
:4019400085B938B9284B1D80284A137803F0BF03137070BD254A137843F040031370224B1D8070BD22B3002321490B70012413310C7004390B7008390B7803F07F030B706E
:401980001A4B1B7813F0080F00D08DB9194B18800721013B1970164B1B7813F0010FFAD110490B7803F0FE030B700021104B19700C4B1B7813F0010F0DD00E4B1D800EB165
:4019C000032200E001220A4B1A70094B1B7813F0010FFAD170BD044B1D8002490B7813430B7070BDA143004000410040024100400140004002400040024B1878C0F340102B
:401A0000704700BF31510040024B1878C0F38010704700BF31510040014B1878C009704731510040024B187800F00100704700BFF1510040044A137803F0FD03400000F036
:401A4000020018431070704730510040044A137803F0F703C00000F0080018431070704730510040044A137803F0EF03000100F0100018431070704730510040014B1B685F
:401A80001864704708ED00E04001C0B2014B1870704700BF00E400E00122014B1A60704700E100E00122014B1A60704780E100E010B50446FFF7F6FF2046FFF7DFFF0720C0
:401AC000FFF7E2FFFFF7E8FF10BD00BF014B1B685864704708ED00E04001C0B2014B1870704700BF01E400E00222014B1A60704700E100E00222014B1A60704780E100E089
:401B000010B50446FFF7F6FF2046FFF7DFFF0720FFF7E2FFFFF7E8FF10BD00BF054A137843F0010313701032137843F001031370704700BFA8430040054B1A7802F0FD027B
:401B40001A701A7800F0020010431870704700BF20580040014B1870704700BF805B0040064B1B78C3F3810303F19243063393F82031DBB2024A1370704700BF2058004063
:401B80000846004008B5064B1A7802F0F3021A701A7800F00C0010431870FFF7E1FF08BD2058004010B50024054B1C7001331C702046FFF7E7FF2046FFF7BEFF10BD00BF5E
:401BC0002058004008B5074B1B7823B9FFF7EAFF0122044B1A70FFF7A1FF6420FFF7BAFF08BD00BF9681FF1F10B5002404E02046FEF7C4FD0134E4B2012CF8D9FF22014B33
:401C00001A7010BDE180FF1F10B50446FFF7ECFF2046FEF799FD014B1C7010BDE180FF1F10B5002404E02046FEF7D2FD0134E4B2012CF8D9FF22014B1A7010BDE280FF1FC5
:401C400010B50446FFF7ECFF2046FEF7B3FD014B1C7010BDE280FF1F0230800803D000BF01380046FCD17047EFF3108072B6704780F31088704700BF30B5214A21F000437F
:401C8000934287B01BDD1F4A934205DD02460B4601F030F907B030BD02AA00F035F800F0030001281ED0022811D0DDE9042300B3DDE9020100F040FA01F10041EAE7002311
:401CC00000930022002300F053FF07B030BD01230093DDE90201DDE9042300F049FF01F10041D7E7DDE90423DDE9020100F024FAD0E70124DDE90201009400F039FFC9E7BB
:401D0000FB21E93FFFFFEF7F2DE9F04F944C21F00047A7428FB040F381801446914A0E46974226DC84A3D3E90023002940F3A08101F0E0F88C4B80469F42894600F083801A
:401D40007FA3D3E9002301F0D5F802460B464046C4E90023494601F0CDF879A3D3E9002301F0C8F80125C4E9020128460FB0BDE8F08F7E4A974240F383807D4A974258DCF2
:401D80003D15A5F21645A7EB05518B46824601F0FFFC01F0FDF98046894642464B4650465946CDE9088901F0A5F80022714B01F055FA8B46824601F0EBFC01F0E9F98046AB
:401DC000894642464B4650465946CDE90A8901F091F80022674B01F041FA00220023CDE90C0101F0A3FC002800F06A81002340464946002201F09AFC002814BF0123022343
:401E00005D480221019000912A46214608A800F0B7FA002EC0F24A81054606E0C2E9000100250024C2E90245002528460FB0BDE8F08F02460B4601F05DF80025C4E90201A3
:401E4000C4E90001F1E740A3D3E9002301F052F83FA3D3E9002306460F4601F04BF802460B463046C4E90023394601F043F838A3D3E9002301F03EF80125C4E90201D4E74D
:401E800000F02CFF34A3D3E900238046894601F0E5F90022394B01F02FF801F079FC054601F076F924A3D3E90023CDE9040101F0D5F902460B464046494601F01BF820A389
:401EC000D3E9002382468B46DDE9040101F0C6F91F2DCDE9020155DC294B6A1E53F822309F424FD002460B465046594601F002F802460B4681468846C4E900234A46434650
:401F00005046594600F0F6FFDDE9022300F0F2FF02460B46002EC4E9022386DA4A4608F1004301F1004184E80C00E160A0606D427BE700BFAFF3008000004054FB21F93F30
:401F40003163621A61B4D03D0000601A61B4D03D7370032E8A19A33B83C8C96D305FE43FFB21E93F7BD90240FB21F93FFB213941FFFFEF7F000070417C4500000000E03F0A
:401F8000FC440000DDE902235046594600F0B2FF3F15C1F30A53FB1A102B81468846C4E90001ABDD58A3D3E90023DDE9040101F055F98046894602460B465046594600F069
:401FC00099FFCDE9060102460B465046594600F091FF42464B4600F08DFF4DA3D3E9002380468946DDE9040101F038F942464B4600F080FF02460B46CDE90201DDE90601B1
:4020000000F078FF0B4602468846C1F30A517F1A312F8146C4E9002372DD3FA3D3E90023DDE9040101F01AF98046894602460B46DDE9060100F05EFF02460B4682468B46DA
:40204000DDE9060100F056FF42464B4600F052FF33A3D3E9002380468946DDE9040101F0FDF842464B4600F045FFCDE9020139E700F042FF2E4B80469F42894622D02AA3F4
:40208000D3E9002300F038FF02460B464046C4E90023494600F02EFF23A3D3E9002300F02BFF4FF0FF35C4E90201BEE66268E36802F1004203F1004345426260E360B4E652
:4020C00003239DE610A3D3E9002300F015FF10A3D3E9002306460F4600F00EFF02460B463046C4E90023394600F004FF08A3D3E9002300F001FF4FF0FF35C4E9020194E609
:40210000DDE906ABFAE600BF0000601A61B4D03D7370032E8A19A33B0000002E8A19A33BC14920259A837B393163621A61B4D03DFB21F93F000000002DE9F04F21F0004657
:40214000B6F1795F85B00C4692469B4605466BDA01F01EFB002800F0E7802A4623462846214601F07BF874A3D3E900238046894601F074F872A3D3E9002300F0BDFE424666
:402180004B4601F06BF870A3D3E9002300F0B2FE42464B4601F062F86DA3D3E9002300F0ABFE42464B4601F059F86BA3D3E9002300F0A0FE42464B4601F050F868A3D3E9CD
:4021C000002300F099FE42464B4601F047F8CDE900010022644B4046494601F03FF8DDE9002306460F464046494601F037F85246804689465B462846214601F02FF8024665
:402200000B464046494600F075FE02460B463046394600F06FFE02460B460020534900F069FE05B0BDE8F08F02460B4601F016F841A3D3E900238046894601F00FF840A39A
:40224000D3E9002300F058FE42464B4601F006F83DA3D3E9002300F04DFE42464B4600F0FDFF3BA3D3E9002300F046FE42464B4600F0F4FF38A3D3E9002300F03BFE4246DA
:402280004B4600F0EBFF36A3D3E9002300F034FE4B46424600F0E2FF354BCDE900019E4297DD344B00229E4238DCA6F5001300202E4916461F4600F01DFECDE902010022E3
:4022C000294B4046494600F0C9FF32463B4600F011FEDDE9002306460F464046494600F0BDFF5246804689465B462846214600F0B5FF02460B464046494600F0FBFD024635
:402300000B463046394600F0F5FD02460B46DDE9020100F0EFFD05B0BDE8F08F164B0026CDE90223154FCAE71049002005B0BDE8F08F00BFAFF30080D43888BEE9FAA8BD1A
:40234000C4B1B4BD9EEE213EAD529C804F7E923E9015CB19A001FA3E7751C1166CC1563F4C5555555555A53F0000E03F0000F03F3233D33F0000E93F0000E73F0000D23F14
:402380002DE9F04F794CADF51D7D1F460B93D31E84FB0354DB17C3EBA403A69E744C23EAE37554F826406B1C26460994A3EB83037C1E0D95029402EBC3032D1B3419049049
:4023C0000A91089316D42C44013422AEA79F08E057F8250000F0DCFE0135A542E6E9020108D0002DF4DA013500200021A542E6E90201F6D1099B002B2FDB099B74AADDF8B3
:40240000089002EBC30B0DF5E47A029B002BC0F295810B9B0026C3EB090824AB03EBC808049B0027A3F1080524AB03EBC904F5E9022374E8020100F011FF02460B463046DF
:40244000394600F059FD444506460F46EFD1EAE90267DA4509F10109D7D1099B10A91D4603F18043023B9B001A1D0A440B440F920E939CAB03EBC503002D53E928672BDD44
:402480009CAB03EBC504A83C0DF13C0A0DF5E47B0022384B3046394600F0E0FE01F078F900F076FE0022344B8046894600F0D6FE02460B463046394600F01CFD01F068F984
:4024C00074E802234AF8040F4946404600F014FD5C4506460F46DBD1089C30463946224600F08AFC00224FF07F5306460F4600F0B5FE00F0F9FB0022204B00F0AFFE0246BE
:402500000B463046394600F0F5FC0F46064601F03FF9814600F03CFE02460B463046394600F0E8FC002C06460F4640F3EE80681E10AB53F82030C4F1180243FA02F101FA13
:4025400002F29B1AC4F1170810AA42F82030894443FA08F8B8F1000F3DDD002D09F1010940F3D382002214460FA911E0ABAAAA2A844600000000703E00007041000020402E
:40258000C3F180700BB108600124013295420DDD51F8043F002CF3D0C3F1FF13013203F57F4395420B604FF00104F1DC089B002B0DDD012B00F0B180022B08D16A1E10AB6B
:4025C00053F8223010A9C3F3150341F82230B8F1020F00F08180002200233046394601F0A5F8002800F05B82099B05F1FF3B5B4510DC05F1804310AA013B0F9802EB83039B
:40260000002253F80419834242EA0102F9D1002A40F0B180099B10AA013B52F82330002B40F071820E9A012352F8041901330029FAD0E9186A1C8A420C914BDC0D990B9888
:402640005118DB0001F180410593A79B05440139E80003EB810A24ABD20003EB000B74AB13440193A2F10803069007934FF000095AF8040F00F08CFD029BEBE80201002B6F
:402680004FF000064FF000071BDB069B03EB0904079B09EB030824AB1C449844049BA3F10805F5E9022374E8020100F0D7FD02460B463046394600F01FFC444506460F4628
:4026C000EFD1019B09F10809E3E802670193059B9945CDD10C9DCCE632463B460020B04900F008FC06460F46002C3FF474AF089A0020AB4900F080FB02460B46304639465C
:4027000000F0F8FB06460F4665E710D16B1E10AA52F823304FEAE3581CE76A1E10AB53F8223010A9C3F3160341F822304FE700229C4B01F019F858B980464CE70026002706
:40274000EAE90267DA4509F101097FF45EAE84E6002D09F10109C8BF4FF002083FF702AF32463B4600208E4900F0C4FB4FF0020806460F462FE7089A10AB53F82B30183A35
:40278000CDF81490CDF8048008926BB90BF18043013B10A901EB830353F804190BF1FF3B183A0029F8D00892089A00207C4900F023FBBBF1000F04460D46C0F2B6814FEAF9
:4027C000CB030DF5E87810AA02EB8B0608EB03090493043609F1080756F8040D00F0D8FC22462B4600F03AFD002267E902016E4B2046294600F032FDB84504460D46EBD1FD
:402800004B46CDF818B09B460DF5987ACDF808A0DDF824A04FF00009BAF1000FC0F226815DA3D3E90023DFF884815D4600260027002403E0A14510DBF8E90223F5E80201BB
:4028400000F00CFD02460B463046394600F054FB0134A24506460F46ECDA029BABF1080B03EBC903C3E9006772AB5B4509F10109D2D1A69BDDF818B0DDF808A0032B00F217
:402880008380DFE813F0D100950095000400BBF1000F40F35481049BCDF808B053449846D3E90067D34658E9029A32463B464846514600F021FB04460D4602460B464846F1
:4028C000514600F017FB32463B4600F015FBC8E9000168E90245C34526462F46E3D1DA46DDF808B0BBF1010F40F32981049B0DF59C7B53449846D3E90067994659E9023472
:402900003046CDE902341A463946234600F0F4FA04460D4602460B46DDE9020100F0EAFA32463B4600F0E8FAC9E9000169E90245CB4526462F46E1D100231D4608F10808F3
:4029400050AC184678E90223294600F0D5FA444503460D46F5D1019A002A00F0D880DAF80440DAF80C200A9FDAF80010DAF8080005F1004504F1004402F100427D613B61B5
:402980007C60FA603960B860059B03F007000DF51D7DBDE8F08F00BF00000040FB21F93F0000F03F0000E03F0000703E9846000000242146049D0835554475E902232046BE
:4029C00000F09AFA55450446F7D1019B002B50D00A9F01F100450B46DAE9000187E83000224600F087FABBF1000F03460D460DDD01241846FAE90223294600F07DFA01347C
:402A0000A34503460D46F4DA019A0AB105F10045184629460A9BC3E90201059B03F007000DF51D7DBDE8F08F00231C46049A0832924418467AE90223214600F05DFA0BF175
:402A4000FF3BBBF1FF3F03460C46F2D1019A0AB104F10044184621460A9BC3E90001059B03F007000DF51D7DBDE8F08F00260027F3E626460F4622460A9C0B46DAE90001CA
:402A8000C4E9006700F036FABBF1000F03460D46AEDC184629460A9BC3E90201BDE7089B30465A423946CDF81490CDF8048000F0A3F900222C4B06460F4600F055FE002825
:402AC00040D00022294B3046394600F0C7FB00F05FFE044600F05CFB0022234B00F0BEFB0B4602463946304600F004FA00F050FE089B05F1010B1833089310AB43F8250012
:402B000043F82B4050E6012393E500244EE51846DAE90067DAE9022329460A9DC5E90067C5E90401C5E902232EE7A69B032B3FF62BAFDFE803F0151010020DF5987A0023EA
:402B40001D4608E73046394600F022FE10ABAB4643F8250028E6002421460DF5987A34E700231C4672E700BF000070410000703E2DE9F04F21F00046B6F1795F85B00C467C
:402B800090469946054604DA00F002FE002800F085802A4623462846214600F05FFB06460F4602460B462846214600F057FB3EA3D3E9002382468B463046394600F04EFB5A
:402BC0003BA3D3E9002300F095F932463B4600F045FB39A3D3E9002300F08EF932463B4600F03CFB36A3D3E9002300F083F932463B4600F033FB34A3D3E9002300F07CF9C9
:402C00000E9BCDE900019BB30022334B4046494600F024FBDDE90023CDE902015046594600F01CFB02460B46DDE9020100F062F932463B4600F012FB42464B4600F05AF945
:402C400023A3D3E9002306460F465046594600F005FB02460B463046394600F04DF902460B462846214600F045F905B0BDE8F08F02460B463046394600F0F0FA14A3D3E9D5
:402C8000002300F037F952465B4600F0E7FA2A46234600F031F905B0BDE8F08F2846214605B0BDE8F08F00BF7CD5CF5A3AD9E53DEB9C2B8AE6E55A3E7DFEB157E31DC73EB8
:402CC000D561C119A0012A3FA6F810111111813F495555555555C53F0000E03F21F00041704700BF00000000C1F30A522DE9F843A2F2FF36132E0B4604460D4688460746C8
:402D00001CDC002E3FDB3A4A864642FA06F901EA0902024317D034A3D3E9002300F0ECF80022002300F02AFD20B1002D40DB28EA0905002738462946BDE8F883332E06DD0F
:402D4000B6F5806F2FD020461946BDE8F883A2F213424FF0FF3929FA02F910EA090FF2D021A3D3E9002300F0C7F80022002300F005FD0028DED0002D20DB454627EA090750
:402D800038462946D8E718A3D3E9002300F0B4F80022002300F0F2FC0028CBD0002D18DB00273D46C6E702460B4600F0A5F8CCE74FF4801343FA06F6B044B8E7142E10D037
:402DC0000123C6F1340603FA06F6371928BF9844D3E725F00042074B224318BF1D460027A8E705F10108C8E79C7500883CE4377EFFFF0F000000F0BFF8B5C1F30A56044617
:402E00000D460B46174606BB21F00043034325D000222F4B00F022FA2E4A044697420D460B462ADBC1F30A56363E40F2FE723E44964228DC002E12DD23F0FF4323F4E00361
:402E400043EA065520462946F8BD40F2FF729642EBD102460B4600F04FF8F8BDF8BD16F1350F1DDA4CF250339F420CDC14A1D1E9000122462B4600F031F811A3D3E900230E
:402E800000F0ECF9F8BD22460FA1D1E900012B4600F024F80CA3D3E9002300F0DFF9F8BD23F0FF4323F4E003363643EA0655204629460022084B00F0D1F9F8BDAFF300800F
:402EC00059F3F8C21F6EA5019C7500883CE4377E00005043B03CFFFF0000903C03F0004321F0004242EA0301704700BF81F0004102E000BF83F0004330B54FEA41044FEA0E
:402F0000430594EA050F08BF90EA020F1FBF54EA000C55EA020C7FEA645C7FEA655C00F0E2804FEA5454D4EB5555B8BF6D420CDD2C4480EA020281EA030382EA000083EACA
:402F4000010180EA020281EA0303362D88BF30BD11F0004F4FEA01314FF4801C4CEA113102D0404261EB410113F0004F4FEA03334CEA133302D0524263EB430394EA050F1C
:402F800000F0A780A4F10104D5F1200E0DDB02FA0EFC22FA05F2801841F1000103FA0EF2801843FA05F359410EE0A5F120050EF1200E012A03FA0EFC28BF4CF0020C43FAC6
:402FC00005F3C01851EBE37101F0004507D54FF0000EDCF1000C7EEB00006EEB0101B1F5801F1BD3B1F5001F0CD349085FEA30004FEA3C0C04F101044FEA445212F5800FF4
:4030000080F09A80BCF1004F08BF5FEA500C50F1000041EB045141EA050130BD5FEA4C0C404141EB010111F4801FA4F10104E9D191F0000F04BF01460020B1FA81F308BFD6
:403040002033A3F10B03B3F120020CDA0C3208DD02F1140CC2F10C0201FA0CF021FA02F10CE002F11402D8BFC2F1200C01FA02F120FA0CFCDCBF41EA0C019040E41AA2BF36
:4030800001EB0451294330BD6FEA04041F3C1CDA0C340EDC04F11404C4F1200220FA04F001FA02F340EA030021FA04F345EA030130BDC4F10C04C4F1200220FA02F001FAB6
:4030C00004F340EA0300294630BD21FA04F0294630BD94F0000F83F4801306BF81F480110134013D4EE77FEA645C18BF7FEA655C29D094EA050F08BF90EA020F05D054EABB
:40310000000C04BF1946104630BD91EA030F1EBF0021002030BD5FEA545C05D14000494128BF41F0004130BD14F580043CBF01F5801130BD01F0004545F0FE4141F470015B
:403140004FF0000030BD7FEA645C1ABF194610467FEA655C1CBF0B46024650EA013406BF52EA033591EA030F41F4002130BD00BF90F0000F04BF0021704730B54FF4806461
:4031800004F132044FF000054FF0000150E700BF90F0000F04BF0021704730B54FF4806404F1320410F0004548BF40424FF000013EE700BF42004FEAE2014FEA31014FEA15
:4031C00002701FBF12F07F4393F07F4F81F06051704792F0000F14BF93F07F4F704730B54FF4607401F0004521F0004120E700BF50EA010208BF704730B54FF000050AE00D
:4032000050EA010208BF704730B511F0004502D5404261EB41014FF4806404F132045FEA915C3FF4DCAE4FF003025FEADC0C18BF03325FEADC0C18BF033202EBDC02C2F140
:40324000200300FA03FC20FA02F001FA03FE40EA0E0021FA02F11444C1E600BF70B54FF0FF0C4CF4E06C1CEA11541DBF1CEA135594EA0C0F95EA0C0F00F0DEF82C4481EAA2
:40328000030621EA4C5123EA4C5350EA013518BF52EA033541F4801143F4801338D0A0FB02CE4FF00005E1FB02E506F00042E0FB03E54FF00006E1FB03569CF0000F18BF05
:4032C0004EF0010EA4F1FF04B6F5007F64F5407404D25FEA4E0E6D4146EB060642EAC62141EA55514FEAC52040EA5E504FEACE2EB4F1FD0C88BFBCF5E06F1ED8BEF1004F54
:4033000008BF5FEA500E50F1000041EB045170BD06F0004646EA010140EA020081EA0301B4EB5C04C2BFD4EB0C0541EA045170BD41F480114FF0000E013C00F3AB8014F1B7
:40334000360FDEBF002001F0004170BDC4F10004203C35DA0C341BDC04F11404C4F1200500FA05F320FA04F001FA05F240EA020001F0004221F0004110EBD37021FA04F6B4
:4033800042EB06015EEA430E08BF20EAD37070BDC4F10C04C4F1200500FA04F320FA05F001FA04F240EA020001F0004110EBD37041F100015EEA430E08BF20EAD37070BDC6
:4033C000C4F1200500FA05F24EEA020E20FA04F301FA05F243EA020321FA04F001F0004121FA04F220EA020000EBD3705EEA430E08BF20EAD37070BD94F0000F0FD101F0BB
:403400000046400041EB010111F4801F08BF013CF7D041EA060195F0000F18BF704703F00046520043EB030313F4801F08BF013DF7D043EA0603704794EA0C0F0CEA135500
:4034400018BF95EA0C0F0CD050EA410618BF52EA4306D1D181EA030101F000414FF0000070BD50EA410606BF1046194652EA430619D094EA0C0F02D150EA013613D195EACA
:403480000C0F05D152EA03361CBF104619460AD181EA030101F0004141F0FE4141F470014FF0000070BD41F0FE4141F4780170BD70B54FF0FF0C4CF4E06C1CEA11541DBF8B
:4034C0001CEA135594EA0C0F95EA0C0F00F0A7F8A4EB050481EA030E52EA03354FEA013100F088804FEA03334FF0805545EA131343EA12634FEA022245EA111545EA1065E1
:403500004FEA00260EF000419D4208BF964244F1FD0404F5407402D25B084FEA3202B61A65EB03055B084FEA32024FF480104FF4002CB6EB020E75EB030E22BFB61A754620
:4035400040EA0C005B084FEA3202B6EB020E75EB030E22BFB61A754640EA5C005B084FEA3202B6EB020E75EB030E22BFB61A754640EA9C005B084FEA3202B6EB020E75EB2C
:40358000030E22BFB61A754640EADC0055EA060E18D04FEA051545EA16754FEA06164FEAC30343EA52734FEAC2025FEA1C1CC0D111F4801F0BD141EA00014FF000004FF0C1
:4035C000004CB6E711F4801F04BF01430020B4F1FD0C88BFBCF5E06F3FF6AFAEB5EB030C04BFB6EB020C5FEA500C50F1000041EB045170BD0EF0004E4EEA113114EB5C04B6
:40360000C2BFD4EB0C0541EA045170BD41F480114FF0000E013C90E645EA060E8DE60CEA135594EA0C0F08BF95EA0C0F3FF43BAF94EA0C0F0AD150EA01347FF434AF95EAE3
:403640000C0F7FF425AF104619462CE795EA0C0F06D152EA03353FF4FDAE1046194622E750EA410618BF52EA43067FF4C5AE50EA41047FF40DAF52EA43057FF4EBAE12E7A5
:403680004FF0FF3C06E000BF4FF0010C02E000BF4FF0010C4DF804CD4FEA410C7FEA6C5C4FEA430C18BF7FEA6C5C1BD001B050EA410C0CBF52EA430C91EA030F02BF90EA14
:4036C000020F0020704710F1000F91EA030F58BF994208BF90422CBFD8176FEAE37040F0010070474FEA410C7FEA6C5C02D150EA013C07D14FEA430C7FEA6C5CD6D152EAD7
:40370000033CD3D05DF8040B704700BF8446104662468C461946634600E000BF01B5FFF7B7FF002848BF10F1000F01BD4DF808EDFFF7F4FF0CBF012000205DF808FB00BFE7
:403740004DF808EDFFF7EAFF34BF012000205DF808FB00BF4DF808EDFFF7E0FF94BF012000205DF808FB00BF4DF808EDFFF7CEFF94BF012000205DF808FB00BF4DF808ED49
:40378000FFF7C4FF34BF012000205DF808FB00BF4FEA410212F5001215D211D56FF47873B3EB625212D94FEAC12343F0004343EA505311F0004F23FA02F018BF4042704746
:4037C0004FF00000704750EA013005D111F0004008BF6FF0004070474FF00000704700BF4FEA4102B2F1E04324BFB3F5001CDCF1FE5C0DD901F0004C4FEAC0024CEA50705B
:40380000B2F1004F40EB830008BF20F00100704711F0804F21D113F13872BCBF01F00040704741F480114FEA5252C2F11802C2F1200C10FA0CF320FA02F018BF40F001001A
:403840004FEAC1234FEAD32303FA0CFC40EA0C0023FA02F34FEA4303CCE77FEA625307D150EA01331EBF4FF0FE4040F44000704701F0004040F0FE4040F40000704700BF4B
:403880004FF0FF0C1CEAD0521EBF1CEAD15392EA0C0F93EA0C0F6FD01A4480EA010C400218BF5FEA41211ED04FF0006343EA501043EA5111A0FB01310CF00040B1F5000F1E
:4038C0003EBF490041EAD3715B0040EA010062F17F02FD2A1DD8B3F1004F40EBC25008BF20F00100704790F0000F0CF0004C08BF49024CEA502040EA51207F3AC2BFD2F1B7
:40390000FF0340EAC250704740F400004FF00003013A5DDC12F1190FDCBF00F000407047C2F10002410021FA02F1C2F1200200FA02FC5FEA310040F1000053EA4C0308BF2C
:4039400020EADC70704792F0000F00F0004C02BF400010F4000F013AF9D040EA0C0093F0000F01F0004C02BF490011F4000F013BF9D041EA0C018FE70CEAD15392EA0C0FCE
:4039800018BF93EA0C0F0AD030F0004C18BF31F0004CD8D180EA010000F00040704790F0000F17BF90F0004F084691F0000F91F0004F14D092EA0C0F01D142020FD193EA43
:4039C0000C0F03D14B0218BF084608D180EA010000F0004040F0FE4040F40000704740F0FE4040F4400070474FF0FF0C1CEAD0521EBF1CEAD15392EA0C0F93EA0C0F69D01F
:403A0000A2EB030280EA010C49024FEA402037D04FF0805343EA111143EA10130CF000408B4238BF5B0042F17D024FF4000C8B4224BF5B1A40EA0C00B3EB510F24BFA3EBBB
:403A4000510340EA5C00B3EB910F24BFA3EB910340EA9C00B3EBD10F24BFA3EBD10340EADC001B0118BF5FEA1C1CE0D1FD2A3FF650AF8B4240EBC25008BF20F00100704781
:403A80000CF0004C4CEA50207F32C2BFD2F1FF0340EAC250704740F400004FF00003013A37E792F0000F00F0004C02BF400010F4000F013AF9D040EA0C0093F0000F01F0C1
:403AC000004C02BF490011F4000F013BF9D041EA0C0195E70CEAD15392EA0C0F08D142027FF47DAF93EA0C0F7FF470AF084676E793EA0C0F04D14B023FF44CAF08466EE7D6
:403B000030F0004C18BF31F0004CCAD130F000427FF45CAF31F000437FF43CAF5FE700BF42000ED2B2F1FE4F0BD34FF09E03B3EB126209D44FEA002343F0004323FA02F0F3
:403B400070474FF00000704712F1610F01D1420202D14FF0FF3070474FF00000704700BF014B1868704700BF4481FF1F0E4B70B51E460E4C0025E41AA410A54204D056F821
:403B8000253098470135F8E700F0C2FD084B094C1E46E41AA4100025A54204D056F8253098470135F8E770BD1C4700001C4700001C4700002447000010B5431E0A449142D0
:403BC00004D011F8014B03F8014FF8E710BD03460244934202D003F8011BFAE7704700000EB400B54FF402719CB0ADF814106FF00041049107914FF6FF711DAB029006900C
:403C0000084853F8042BADF81610006802A9019300F078F8029B00221A701CB05DF804EB03B070474481FF1F30B582B1451E013915F8013F11F8014FA34206D1EC431444A4
:403C4000E04201D0002BF3D11C46181B30BD104630BD2DE9F0478E6882469E420C46914698463ED88A8912F4906F3AD02568096902236F1A656905EB450595FBF3F57B1CAF
:403C800043449D4238BF1D4653050FD5294600F03FFB064698B13A462169FFF78DFFA38923F4906343F08003A38113E02A4600F08DFB064670B92169504600F0DDFA0C23D8
:403CC000CAF80030A3894FF0FF3043F04003A381BDE8F08726613E44266046466561ED1BA560464528BF464649463246206800F0A7FAA36800209B1BA36023681E4426601F
:403D0000BDE8F0872DE9F04F9DB003938B8980461C060D4616460DD50B695BB9402100F0F7FA2860286118B90C23C8F80030CDE040236B610023099320238DF82930DFF844
:403D40009CB130238DF82A3037463C4614F8013B1BB9B7EB060910D003E0252BF9D02746F3E74B46324629464046FFF772FF013000F0A780099B4B4409933B78002B00F08B
:403D8000A08000234FF0FF3204930793059206938DF853301A930126052221784E4800F041FA671C049B38B14B4A3C46801A06FA00F018430490EFE7D90644BF20228DF878
:403DC00053201A0744BF2B228DF8532022782A2A03D0079A00210A200BE0039A111D12680391002A10DA524243F00200079204900BE027463B780134303B092B03D800FBB7
:403E000002320121F5E701B107923B782E2B1ED17B782A2B0AD1039B02371A1D1B680392002BB8BF4FF0FF33059310E0002319460593781C0A2407463A780130303A092A7D
:403E400003D804FB01210123F5E703B1059103223978224800F0E6F940B14023CBEB000003FA00F0049B013718430490397806221B487E1C8DF8281000F0D4F988B1194B43
:403E800033B9039B073323F007030833039314E003AB00932A46144B04A94046AFF3008007E003AB00932A460F4B04A9404600F093F8B0F1FF3F824603D0099B5344099306
:403EC00042E7AB895B0601D4099801E04FF0FF301DB0BDE8F08F00BFDA460000E0460000E446000000000000533C00002DE9F04791461F460A698B6806469342B8BF1346B0
:403F0000C9F8003091F843200C46DDF8208012B10133C9F800302368990642BFD9F800300233C9F80030256815F0060510D104F1190A07E00123524639463046C04701303D
:403F40001AD00135E368D9F800209B1A9D42F1DB94F843302268003318BF012392060FD5E118302081F843005A1C94F845102244023382F8431003E04FF0FF30BDE8F08721
:403F800004F1430239463046C0470130F4D02268D9F80050E36802F00602042A08BF5D1B2269A3680CBF25EAE57500259342C4BF9B1AED184FF000091A344D4509D0012353
:403FC000224639463046C0470130D5D009F10109F3E70020BDE8F0872DE9F04317460A7E85B06E2A984606460C460C9B01F1430E00F0AE8011D8632A22D009D8002A00F08B
:40400000BB80582A40F0CA8081F84520834955E0642A1ED0692A1CD0C0E0732A00F0B08009D86F2A2ED0702A40F0B8800A6842F020020A603EE0752A24D0782A3AD0ADE07E
:404040001A6801F14205111D1960136884F84230A8E021681A6811F0800F02D0111D196008E011F0400F02F10401196002D0B2F9003000E01368002B3CDA2D225B4284F87F
:40408000432037E021681A6811F0800F02D0111D196007E011F0400F02F10401196001D0138800E01368227E5C496F2A14BF0A2208221BE078225A4984F8452022681868D9
:4040C00012F0800F00F104051D6003D1550601D5038800E00368D00744BF42F0200222601BB9226822F0200222601022002084F8430001E049490A226568002DA56008DB87
:40410000206820F0040020602BB9002D7DD175460CE0002B79D07546B3FBF2F002FB1033CB5C05F8013D03460028F5D1082A0BD12368DA0708D5236962689A42DEBF30234C
:4041400005F8013C05F1FF35C5EB0E0323612EE008681A6810F0800F496903D0101D1860136808E010F0400F02F104001860136801D0198000E0196000232361754616E026
:404180001A68111D1960156800216268284600F049F808B1401B6060636804E004F1420584F8422001232361002384F84330CDF800803B4603AA21463046FFF797FE01306C
:4041C00002D14FF0FF3026E023692A4639463046C0470130F5D023689B0710D5002504F1190907E001234A4639463046C0470130E7D00135E368039A9B1A9D42F2DBE068F6
:40420000039B9842B8BF184605E00B7804F1420584F842308AE705B0BDE8F083EB460000FC46000010B5C9B202449042034605D01C7801308C42F8D1184610BD002010BD04
:40424000884210B501EB020301D8421E0BE09842FBD28118D21AD34204D013F8014D01F8014DF8E710BD994204D011F8014B02F8014FF8E710BD000038B50546002944D0CA
:4042800051F8043C0C1F002BB8BFE41800F0D4F81E4A1368114613B96360146030E0A3420DD92268A018834201BF18685B681218226063600C6023E0A24203D813465A6816
:4042C000002AF9D118681918A1420BD12168014458188242196013D110685268014419605A600DE002D90C232B6009E021686018824201BF106852680918216062605C600F
:404300002846BDE8384000F098B838BD9C81FF1F70B5CD1C25F0030508350C2D38BF0C25002D064601DBA94202D90C23336046E000F082F8234B1C681A462146A1B10B68CE
:404340005B1B0ED40B2B03D90B60CC18CD501EE08C420BBF63684B681360636018BF0C4615E00C464968E9E7174C23681BB9304600F052F820602946304600F04DF8431CC1
:4043800018D0C41C24F00304A0420DD12560304600F053F804F10B00231D20F00700C31A0ED05A42E25070BD211A304600F034F80130EBD10C233360304600F03EF80020DF
:4043C00070BD00BF9C81FF1F9881FF1FF8B5074615460E4621B91146BDE8F840FFF798BF1AB9FFF749FF2846F8BD00F027F885420ED929463846FFF78BFF044650B131463B
:404400002A46FFF7D9FB31463846FFF735FF01E03046F8BD2046F8BD38B5064C0023054608462360FCF792FA431C02D1236803B12B6038BDEC84FF1F7047704751F8040CB9
:404440000028BEBF091851F8043CC0180438704700000000000000004A756D700A0000004A756D70000000004475636B0A0000004475636B00000000554152542065727223
:404480000000000052656365697665643A2000006A756D70000000006475636B00000000256400002D510040005B00401D510040005B004080080404035B00402443004018
:4044C0004000000040510040300000000140001000140140800200170140000500400140000A004C014000020050014020000000801601408C05004880000000FB21F93FA7
:40450000FB2109407CD91240FB2119407A6A1F407CD92240BBFD2540FB2129403A462C407A6A2F405C4731407CD932409C6B3440BBFD3540DB8F3740FB2139401BB43A40DD
:404540003A463C405AD83D407A6A3F404C7E40405C4741406C1042407CD942408CA243409C6B4440AC344540BBFD4540CBC64640DB8F4740EB584840FB21494083F9A20076
:40458000444E6E00FC291500D1572700DD34F50062DBC0003C999500419043006351FE00BBDEAB00B761C5003A6E2400D24D42004906E00009EA2E001C92D100EB1DFE001C
:4045C00029B11C00E83EA700F535820044BB2E009CE98400B4267000417E5F00D6913900538339009CF439008B5F840028F9BD00F81F3B00DEFF97000F980500112FEF0049
:404600000A5A8B006D1F6D00CF7E360009CB2700464FB7009E663F002DEA5F00BA277500E5EBC7003D7BF100F739070092528A00FB6BEA001FB15F00085D8D0030035600DA
:404640007BFC4600F0AB6B0020BCCF0036F49A00E3A91D005E619100081BE60085996500A0145F008D40680080D8FF0027734D0006063100CA561500C9A873007BE26000EA
:404680006B8CC000020000000300000004000000060000000000000000000040FB21F93F000000002D44743E000000809846F83C0000006051CC783B00000080831BF03974
:4046C0000000004020257A38000000802282E336000000001DF369354300232D302B2000686C4C0065666745464700303132333435363738394142434445460030313233FE
:4047000034353637383961626364656600000000F8B500BFF8BC08BC9E4670474D000000C9090000F8B500BFF8BC08BC9E4670472900000048470000C880FF1F8000000022
:40474000A80300000000000000000000F084FF1F0000E02EC05D00001800000000366E0101FFFF000000000000000000000000000000000000000000000000000000000015
:4047800000000000D84600000000000000000000000000000000000000000000000000000000000000000000000000000000000000000000000000000000000000000000DB
:4047C00000000000E480FF1F000000000000000000000000000000000000000000000000000000000000000000000000000000000000000000000000000000000000000037
:404800000000000000000000000000000000000000000000000000000000000000000000000000000000000000000000000000000000000000000000000000000000000078
:404840000000000000000000000000000000000000000000000000000000000000000000000000000000000000000000000000000000000000000000000000000000000038
:4048800000000000000000000000000000000000000000000000000000000000000000000000000000000000000000000000000000000000000000000000000000000000F8
:4048C00000000000000000000000000000000000000000000000000000000000000000000000000000000000000000000000000000000000000000000000000000000000B8
:020000040003F7
:0200000480007A
:40000000035200400264004003650040550401402E0501405206014039070140040E0140020F01404D1401403C150140181601403B170140451801401E190140031B014065
:40004000034001400241014002420140024301400444014002460140014701400948014003490140064C0140034D01400750014001510140091079027C04840F8738840D6D
:400080008772890F0414050106080B010C060E18100118061A081B012210240626082A0A2B012D013401361E37013A803E103F4040534102450C460E470B481549FF4AFFB7
:4000C0004BFF4EF04F44500C5401580459045A045B045C025D225F0166C06A406B02841C8602880C8A118B018C098E10920399029C109E0CA414A810A903AD03B01FB10359
:40010000B21FB902BF01C001C704C9FFCA07CBFFCC40CD20CEF0CF05D008D804D904DA04DC02DD02DF01E040E1A8E240E320018003100608071208010B880E8110301120C8
:4001400013021508160419801A051E902240274029902D802F043020351037103A283B083F2042284740482049805104534055105624571058115A84C0E5C29AC46ECA3CBB
:40018000CC24CE26D016D208D60F0101030606030A020B03130C16011708190C1B031E052206280629012A012B0E3207330F3A083B08580459045C225F018510860189208D
:4001C0008A028C019001931097029B049F08A110A201A602A708AB05B106B301B401B508B602B730B820B980BA02BE40BF11C061C104C203C405C5E0C6C0C80AC9FFCAFF5F
:40020000CBFFCC62CDA0CEF0CF41D00CD418D604D804D904DA04DB04DC22DD22DF01E640E702E910EA30EB10ED10EE10EF12006403080504060407080A800E010F201020F4
:4002400012801712184019401B201D041F0421042202230627102A222B202F04308032143302371A38103B083C103E033F2040404388488049204A0250205A026140620195
:400280006304921197089A049F12A310C067C2A8C45CCA27CCEFCEA6D00BD20CD601D80DB980BF40D904DF0126808A800202040C06020704080209080A0C0C0C0D040E0217
:4002C000111C1201130219181D101E012008211F2404251C2701280C29072B182C0E2F033001340E371F3A203B803E01404549FF4AFF4BFF4F01501852805401560458040E
:4003000059045A045B045C225D995F016040624064406540668068806A806C806E80C045C9FFCAFFCBFFCD83CE03CF01D018DA04DD09DF01E040E240E440E540E680E8807C
:40034000EA80EC80EE80000401A003820A400B0210401211132618041A801B10228029602A012B103040331235803680373039083A103B804240468048024C0259055A80B5
:40038000608072C091089386940499659A019B229C809E809F10A002A380A680A920AA40AD80AE21AF40B740C00FC209C40FCA0FCC0DCE0ED081D218D60BD801EA1009012E
:4003C00031013F01404549FF4AFF4BFF4D834E034F01501859045A045D095F016040624064406540668068806A806C806E80004402010AA91154128019421A281B88202043
:4004000022412301274029802B8830813204331038643B013E1042804680480249054C0250025301590269547090732678017A80904091089210940496AA9C809D209E2070
:40044000A410A680A780AB12B480B601C005C20FC40FCA0DCC0FCE2FD081D218D601EA10EC10EE404060410249FF4AFF4BFF4DA04F0450185A045D015F01604062C064409D
:40048000654066C068C06AC06CC06EC08D08920195029A0E9B0C9F03A208A604AA02B004B104B202B301B401B508B608B702BE04C020C106C5D5C601C702C817C9FFCAFF58
:4004C000CBFFCDAFCE0FCF04D018D280D407D804D904DA04DB04DC11DD11DF01E040E2C0E440E540E6C0E8C0EAC0ECC0EEC00A4410A0120419041A041B52204021082250AC
:4005000030A03108384042044604482849014F205088520459055AA07240C20AC40ECC0ECE08D024D224D60FEC10AF02B740E80831203740CC309F40A5209F40A5209F40AD
:40054000A5207C208820DE01E0014502D001A502030227045A809F04B520B744C040C820D480AF02B640E8105A016120B502D602D802EC08AE01B520EC0200040A041006C8
:4005800011011A041B011C02000F00000073000C040F007000040000047F0000041C006322630900080C300011080A00040000737B0000007B420000402100000460031C2E
:4005C0003800400F00000080000001004500000000EC002023FFFFFF00830301180000000000021304040404222900014000400040408000800080008000800000000000F2
:4006000000000000000000000000000000636300000000003C00000000000000030004030200020020000000003B3B0030000400007F7F0000008000E00000E01A00000088
:40064000000000002500180100000000000000000000000000000000000000000000000000000000000000000000000000000000000000000000000000000000000000003C
:40068000000000000000000000000000000000000000000000000000000000000000000000000000000000000000000000000000000000000000000000000000000000003A
:4006C00000000000000000000000000000000000000000000000000000000000000000000000000000000000000000000000000000000000000000000000000000000000FA
:4007000000000000000000000000000000000000000000000000000000000000000000000000000000000000000000000000000000000000000000000000000000000000B9
:400740000000000000000000000000000000000000000000000000000000000000000000000000000000000000000000000000000000000000000000000000000000000079
:0200000490006A
:0400000000004005B7
:0200000490105A
:04000000BC90ACAF55
:0200000490303A
:020000004C5E54
:0200000490402A
:4000000000000000000000000000000000000000000000000000000000000000000000000000000000000000000000000000000000000000000000000000000000000000C0
:400040000000000000000000000000000000000000000000000000000000000000000000000000000000000000000000000000000000000000000000000000000000000080
:400080000000000000000000000000000000000000000000000000000000000000000000000000000000000000000000000000000000000000000000000000000000000040
:4000C0000000000000000000000000000000000000000000000000000000000000000000000000000000000000000000000000000000000000000000000000000000000000
:0200000490501A
:0C00000000012E16106900012E335CC7B1
:00000001FF